{"address":"0x160Bf2d5C953fAd62640B8175aa7Bf3753dAc7c7","bytecode":"0x608060405234801561001057600080fd5b5061001961001e565b6100de565b600054610100900460ff161561008a5760405162461bcd60e51b815260206004820152602760248201527f496e697469616c697a61626c653a20636f6e747261637420697320696e697469604482015266616c697a696e6760c81b606482015260840160405180910390fd5b60005460ff90811610156100dc576000805460ff191660ff9081179091556040519081527f7f26b83ff96e1f2b6a682f133852f6798a09c465da95921460cefb38474024989060200160405180910390a15b565b611adc806100ed6000396000f3fe608060405234801561001057600080fd5b50600436106101585760003560e01c80638da5cb5b116100c3578063bacbe2da1161007c578063bacbe2da146102a4578063db512e85146102b7578063e0824c1b146102da578063f2fde38b1461032d578063f7c618c114610340578063f98a4eca1461035357600080fd5b80638da5cb5b1461023e5780638e32e4211461024f57806391cca3db14610258578063aa457faf1461026b578063aa96a0271461027e578063b12d96f71461029157600080fd5b8063485cc95511610115578063485cc955146101d15780635c975abb146101e4578063715018a6146101fb57806372146eec1461020357806373bf30ac146102235780638456cb591461023657600080fd5b80630c0858b21461015d5780630f3a2e231461016757806316c236581461017a5780632efe96561461019657806336411aef1461019e5780633f4ba83a146101c9575b600080fd5b610165610366565b005b61016561017536600461177b565b610476565b610183609b5481565b6040519081526020015b60405180910390f35b609c54610183565b6097546101b1906001600160a01b031681565b6040516001600160a01b03909116815260200161018d565b6101656106db565b6101656101df366004611848565b6106ed565b60335460ff165b604051901515815260200161018d565b610165610841565b610183610211366004611881565b609e6020526000908152604090205481565b6101656102313660046118b3565b610853565b6101656108e3565b6065546001600160a01b03166101b1565b610183609a5481565b6098546101b1906001600160a01b031681565b6101656102793660046118e1565b6108f3565b61016561028c366004611881565b610aba565b61018361029f3660046118fa565b610ae4565b6101656102b23660046118e1565b610d12565b6101eb6102c5366004611881565b609f6020526000908152604090205460ff1681565b6102ed6102e83660046118e1565b610ed4565b60408051951515865293151560208601526001600160a01b03909216928401929092526001600160501b039091166060830152608082015260a00161018d565b61016561033b366004611881565b610f2f565b6099546101b1906001600160a01b031681565b6101eb6103613660046118e1565b610fa5565b6098546001600160a01b031633146103af5760405162461bcd60e51b81526020600482015260076024820152662737ba103232bb60c91b60448201526064015b60405180910390fd5b609a5442116103ea5760405162461bcd60e51b8152602060048201526007602482015266139bdd081e595d60ca1b60448201526064016103a6565b60995460985460405163095ea7b360e01b81526001600160a01b039182166004820152600019602482015291169063095ea7b390604401602060405180830381600087803b15801561043b57600080fd5b505af115801561044f573d6000803e3d6000fd5b505050506040513d601f19601f820116820180604052508101906104739190611926565b50565b61047e611316565b61048983838361135c565b6104c45760405162461bcd60e51b815260206004820152600c60248201526b496e76616c6964206461746160a01b60448201526064016103a6565b60006104cf8361140d565b6001600160a01b0385166000908152609e602052604090205490915081811061054b5760405162461bcd60e51b815260206004820152602860248201527f596f75206861766520636c61696d656420616c6c2072657761726420617420796044820152676f75722072616e6b60c01b60648201526084016103a6565b600080610559836001611959565b90505b8381116105f35780600114156105875761058069065a4da25d3016c0000083611959565b91506105e1565b80600214156105a457610580690cb49b44ba602d80000083611959565b80600314156105c15761058069152d02c7e14af680000083611959565b80600414156105e1576105de6954b40b1f852bda00000083611959565b91505b806105eb81611971565b91505061055c565b506001600160a01b038681166000818152609e602052604090819020869055609954905163a9059cbb60e01b81526004810192909252602482018490529091169063a9059cbb90604401602060405180830381600087803b15801561065757600080fd5b505af115801561066b573d6000803e3d6000fd5b505050506040513d601f19601f8201168201806040525081019061068f9190611926565b50856001600160a01b03167fd0813ff03c470dcc7baa9ce36914dc2febdfd276d639deffaac383fd3db42ba3826040516106cb91815260200190565b60405180910390a2505050505050565b6106e3611463565b6106eb6114bd565b565b600054610100900460ff161580801561070d5750600054600160ff909116105b806107275750303b158015610727575060005460ff166001145b61078a5760405162461bcd60e51b815260206004820152602e60248201527f496e697469616c697a61626c653a20636f6e747261637420697320616c72656160448201526d191e481a5b9a5d1a585b1a5e995960921b60648201526084016103a6565b6000805460ff1916600117905580156107ad576000805461ff0019166101001790555b6107b561150f565b609780546001600160a01b038086166001600160a01b03199283161790925560998054928516929091169190911790556107f3426305a39a80611959565b609a55801561083c576000805461ff0019169055604051600181527f7f26b83ff96e1f2b6a682f133852f6798a09c465da95921460cefb38474024989060200160405180910390a15b505050565b610849611463565b6106eb600061153e565b61085b611463565b6001600160a01b0382166000908152609f602052604090205460ff168015158215151461083c5781156108a257609b805490600061089883611971565b91905055506108b8565b609b80549060006108b28361198c565b91905055505b6001600160a01b0383166000908152609f60205260409020805483151560ff19909116179055505050565b6108eb611463565b6106eb611590565b6000609c6109026001846119a3565b81548110610912576109126119ba565b60009182526020918290206040805160a081018252600293909302909101805460ff808216151585526101008204161515948401949094526201000084046001600160a01b0390811692840192909252600160b01b9093046001600160501b031660608301526001909201546080820152609854909250163314156109c95760016020820152604051829033907f0e05f3a362ec9195eb226c34ab73b4bca5ba3bba966f97cded1b11c27a82c0c790600090a35050565b336000908152609f602052604090205460ff1615610ab657336000908152609d6020908152604080832085845290915290205460ff1615610a4c5760405162461bcd60e51b815260206004820152601960248201527f596f75206861766520766f74652079657320616c72656164790000000000000060448201526064016103a6565b60608101805190610a5c826119d0565b6001600160501b0316905250336000818152609d60209081526040808320868452909152808220805460ff19166001179055518492917f28b40e4a190ebdd366d33def2930f5ed6568a9bd86f1befe9843bb8bc6572eb091a35b5050565b610ac2611463565b609780546001600160a01b0319166001600160a01b0392909216919091179055565b6040805160a0810182526000808252602082018190529181018290526060810182905260808101829052609c54600090610b1f906001611959565b6098549091506001600160a01b0316331415610b6e5760016020830152604051819033907f0e05f3a362ec9195eb226c34ab73b4bca5ba3bba966f97cded1b11c27a82c0c790600090a3610bf0565b336000908152609f602052604090205460ff1615610bf05760608201805190610b96826119d0565b6001600160501b0316905250336000818152609d60209081526040808320858452909152808220805460ff19166001179055518392917f28b40e4a190ebdd366d33def2930f5ed6568a9bd86f1befe9843bb8bc6572eb091a35b6001600160a01b03858116604084810182815260808601888152609c8054600181018255600091909152875160029091027faf85b9071dfafeac1409d3f1d19bafc9bc7c37974cde8df0ee6168f0086e539c810180546020808c0151965160608d01516001600160501b0316600160b01b026001600160b01b0391909b1662010000021661ffff9715156101000261ff00199615159690961661ffff199093169290921794909417959095169490941796909617909255517faf85b9071dfafeac1409d3f1d19bafc9bc7c37974cde8df0ee6168f0086e539d909401939093558051918252918101869052339183917f38e6033954a3fbfd9144c2a5ba8305f8047c02e984bf0da9dd2931266a477380910160405180910390a3505092915050565b6000609c610d216001846119a3565b81548110610d3157610d316119ba565b60009182526020918290206040805160a081018252600293909302909101805460ff808216151585526101008204161515948401949094526201000084046001600160a01b0390811692840192909252600160b01b9093046001600160501b03166060830152600190920154608082015260985490925016331415610de857600060208201819052604051839133917f94c70cc32d95c97b32f3dd0b6128108475735ab32a481224f2c90f4276cc5dbb9190a35050565b336000908152609f602052604090205460ff1615610ab657336000908152609d6020908152604080832085845290915290205460ff16610e6a5760405162461bcd60e51b815260206004820152601860248201527f596f75206861766520766f7465206e6f20616c7265616479000000000000000060448201526064016103a6565b60608101805190610e7a826119f7565b6001600160501b0316905250336000818152609d60209081526040808320868452909152808220805460ff19169055518492917f8d9cced5724da3c171f385e1f82471cf1d1f88b88fb372221d0111d1f58fc6de91a35050565b609c8181548110610ee457600080fd5b60009182526020909120600290910201805460019091015460ff8083169350610100830416916201000081046001600160a01b031691600160b01b9091046001600160501b03169085565b610f37611463565b6001600160a01b038116610f9c5760405162461bcd60e51b815260206004820152602660248201527f4f776e61626c653a206e6577206f776e657220697320746865207a65726f206160448201526564647265737360d01b60648201526084016103a6565b6104738161153e565b600080609c610fb56001856119a3565b81548110610fc557610fc56119ba565b60009182526020918290206040805160a081018252600293909302909101805460ff808216158015865261010083049091161515958501959095526201000081046001600160a01b031692840192909252600160b01b9091046001600160501b03166060830152600101546080820152915061107c5760405162461bcd60e51b8152602060048201526016602482015275151a1a5cc81d9bdd19481a185cc8195e1958dd5d195960521b60448201526064016103a6565b600081602001511561108d57506113245b620f424082606001516001600160501b0316609b546113ec620f42406110b39190611a1a565b6110bd9190611a39565b6110c79190611a1a565b6110d19190611a39565b6110db9082611959565b9050611388811161112e5760405162461bcd60e51b815260206004820152601760248201527f4e6f7420656e6f75676820766f74696e6720706f77657200000000000000000060448201526064016103a6565b60408201516001600160a01b03161561119e576040808301516001600160a01b03166000908152609f602052205460ff1661119e57609b805490600061117383611971565b90915550506040808301516001600160a01b03166000908152609f60205220805460ff191660011790555b60808201511561123857609954609854608084015160405163095ea7b360e01b81526001600160a01b039283166004820152602481019190915291169063095ea7b390604401602060405180830381600087803b1580156111fe57600080fd5b505af1158015611212573d6000803e3d6000fd5b505050506040513d601f19601f820116820180604052508101906112369190611926565b505b60018083528290609c9061124c90876119a3565b8154811061125c5761125c6119ba565b60009182526020808320845160029093020180549185015160408087015160608801516001600160501b0316600160b01b026001600160b01b036001600160a01b0390921662010000029190911661ffff9315156101000261ff00199715159790971661ffff1990961695909517959095179190911692909217929092178255608090930151600190910155905185917fbf8e2b108bb7c980e08903a8a46527699d5e84905a082d56dacb4150725c8cab91a25050919050565b60335460ff16156106eb5760405162461bcd60e51b815260206004820152601060248201526f14185d5cd8589b194e881c185d5cd95960821b60448201526064016103a6565b60408051606085901b6bffffffffffffffffffffffff19166020808301919091526034808301869052835180840390910181526054830184528051908201207f19457468657265756d205369676e6564204d6573736167653a0a333200000000607484015260908084018290528451808503909101815260b090930190935281519101206000919060006113f082866115cd565b506097546001600160a01b03918216911614979650505050505050565b6000624c4b4082111561142257506004919050565b622dc6c082111561143557506003919050565b621e848082111561144857506002919050565b620f424082111561145b57506001919050565b506000919050565b6065546001600160a01b031633146106eb5760405162461bcd60e51b815260206004820181905260248201527f4f776e61626c653a2063616c6c6572206973206e6f7420746865206f776e657260448201526064016103a6565b6114c5611613565b6033805460ff191690557f5db9ee0a495bf2e6ff9c91a7834c1ba4fdd244a5e8aa4e537bd38aeae4b073aa335b6040516001600160a01b03909116815260200160405180910390a1565b600054610100900460ff166115365760405162461bcd60e51b81526004016103a690611a5b565b6106eb61165c565b606580546001600160a01b038381166001600160a01b0319831681179093556040519116919082907f8be0079c531659141344cd1fd0a4f28419497f9722a3daafe3b4186f6b6457e090600090a35050565b611598611316565b6033805460ff191660011790557f62e78cea01bee320cd4e420270b5ea74000d11b0c9f74754ebdbfc544b05a2586114f23390565b6000808251604114156116045760208301516040840151606085015160001a6115f88782858561168c565b9450945050505061160c565b506000905060025b9250929050565b60335460ff166106eb5760405162461bcd60e51b815260206004820152601460248201527314185d5cd8589b194e881b9bdd081c185d5cd95960621b60448201526064016103a6565b600054610100900460ff166116835760405162461bcd60e51b81526004016103a690611a5b565b6106eb3361153e565b6000807f7fffffffffffffffffffffffffffffff5d576e7357a4501ddfe92f46681b20a08311156116c35750600090506003611747565b6040805160008082526020820180845289905260ff881692820192909252606081018690526080810185905260019060a0016020604051602081039080840390855afa158015611717573d6000803e3d6000fd5b5050604051601f1901519150506001600160a01b03811661174057600060019250925050611747565b9150600090505b94509492505050565b6001600160a01b038116811461047357600080fd5b634e487b7160e01b600052604160045260246000fd5b60008060006060848603121561179057600080fd5b833561179b81611750565b925060208401359150604084013567ffffffffffffffff808211156117bf57600080fd5b818601915086601f8301126117d357600080fd5b8135818111156117e5576117e5611765565b604051601f8201601f19908116603f0116810190838211818310171561180d5761180d611765565b8160405282815289602084870101111561182657600080fd5b8260208601602083013760006020848301015280955050505050509250925092565b6000806040838503121561185b57600080fd5b823561186681611750565b9150602083013561187681611750565b809150509250929050565b60006020828403121561189357600080fd5b813561189e81611750565b9392505050565b801515811461047357600080fd5b600080604083850312156118c657600080fd5b82356118d181611750565b91506020830135611876816118a5565b6000602082840312156118f357600080fd5b5035919050565b6000806040838503121561190d57600080fd5b823561191881611750565b946020939093013593505050565b60006020828403121561193857600080fd5b815161189e816118a5565b634e487b7160e01b600052601160045260246000fd5b6000821982111561196c5761196c611943565b500190565b600060001982141561198557611985611943565b5060010190565b60008161199b5761199b611943565b506000190190565b6000828210156119b5576119b5611943565b500390565b634e487b7160e01b600052603260045260246000fd5b60006001600160501b03808316818114156119ed576119ed611943565b6001019392505050565b60006001600160501b03821680611a1057611a10611943565b6000190192915050565b6000816000190483118215151615611a3457611a34611943565b500290565b600082611a5657634e487b7160e01b600052601260045260246000fd5b500490565b6020808252602b908201527f496e697469616c697a61626c653a20636f6e7472616374206973206e6f74206960408201526a6e697469616c697a696e6760a81b60608201526080019056fea26469706673582212200b80aa87ae1bd3403b70934c7f40117f8e05c58a77f13b45714bfac97e31577064736f6c63430008090033","abi":[{"inputs":[],"stateMutability":"nonpayable","type":"constructor"},{"anonymous":false,"inputs":[{"indexed":true,"internalType":"address","name":"user","type":"address"},{"indexed":false,"internalType":"uint256","name":"reward","type":"uint256"}],"name":"ClaimedReward","type":"event"},{"anonymous":false,"inputs":[{"indexed":true,"internalType":"address","name":"dev","type":"address"},{"indexed":true,"internalType":"uint256","name":"voteId","type":"uint256"}],"name":"DevCancel","type":"event"},{"anonymous":false,"inputs":[{"indexed":true,"internalType":"address","name":"dev","type":"address"},{"indexed":true,"internalType":"uint256","name":"voteId","type":"uint256"}],"name":"DevConfirm","type":"event"},{"anonymous":false,"inputs":[{"indexed":true,"internalType":"uint256","name":"voteId","type":"uint256"}],"name":"ExecuteVote","type":"event"},{"anonymous":false,"inputs":[{"indexed":false,"internalType":"uint8","name":"version","type":"uint8"}],"name":"Initialized","type":"event"},{"anonymous":false,"inputs":[{"indexed":true,"internalType":"address","name":"leader","type":"address"},{"indexed":true,"internalType":"uint256","name":"voteId","type":"uint256"}],"name":"LeaderCancel","type":"event"},{"anonymous":false,"inputs":[{"indexed":true,"internalType":"address","name":"leader","type":"address"},{"indexed":true,"internalType":"uint256","name":"voteId","type":"uint256"}],"name":"LeaderConfirm","type":"event"},{"anonymous":false,"inputs":[{"indexed":true,"internalType":"address","name":"previousOwner","type":"address"},{"indexed":true,"internalType":"address","name":"newOwner","type":"address"}],"name":"OwnershipTransferred","type":"event"},{"anonymous":false,"inputs":[{"indexed":false,"internalType":"address","name":"account","type":"address"}],"name":"Paused","type":"event"},{"anonymous":false,"inputs":[{"indexed":true,"internalType":"uint256","name":"voteId","type":"uint256"},{"indexed":true,"internalType":"address","name":"user","type":"address"},{"indexed":false,"internalType":"address","name":"newLeader","type":"address"},{"indexed":false,"internalType":"uint256","name":"devClaimAmount","type":"uint256"}],"name":"SubmitTransaction","type":"event"},{"anonymous":false,"inputs":[{"indexed":false,"internalType":"address","name":"account","type":"address"}],"name":"Unpaused","type":"event"},{"inputs":[{"internalType":"uint256","name":"voteId","type":"uint256"}],"name":"cancelVote","outputs":[],"stateMutability":"nonpayable","type":"function"},{"inputs":[{"internalType":"address","name":"_severAddress","type":"address"}],"name":"changeSeverAddres","outputs":[],"stateMutability":"nonpayable","type":"function"},{"inputs":[{"internalType":"address","name":"_user","type":"address"},{"internalType":"uint256","name":"_score","type":"uint256"},{"internalType":"bytes","name":"_signature","type":"bytes"}],"name":"claimReward","outputs":[],"stateMutability":"nonpayable","type":"function"},{"inputs":[],"name":"claimRewardAfterExpired","outputs":[],"stateMutability":"nonpayable","type":"function"},{"inputs":[{"internalType":"address","name":"","type":"address"}],"name":"claimedRank","outputs":[{"internalType":"uint256","name":"","type":"uint256"}],"stateMutability":"view","type":"function"},{"inputs":[{"internalType":"uint256","name":"voteId","type":"uint256"}],"name":"confirmVote","outputs":[],"stateMutability":"nonpayable","type":"function"},{"inputs":[{"internalType":"address","name":"_newLeader","type":"address"},{"internalType":"uint256","name":"_devClaimAmount","type":"uint256"}],"name":"createVote","outputs":[{"internalType":"uint256","name":"transactionId","type":"uint256"}],"stateMutability":"nonpayable","type":"function"},{"inputs":[],"name":"dev","outputs":[{"internalType":"address","name":"","type":"address"}],"stateMutability":"view","type":"function"},{"inputs":[{"internalType":"uint256","name":"voteId","type":"uint256"}],"name":"executeVote","outputs":[{"internalType":"bool","name":"","type":"bool"}],"stateMutability":"nonpayable","type":"function"},{"inputs":[],"name":"expiredTime","outputs":[{"internalType":"uint256","name":"","type":"uint256"}],"stateMutability":"view","type":"function"},{"inputs":[],"name":"getLastVoteId","outputs":[{"internalType":"uint256","name":"","type":"uint256"}],"stateMutability":"view","type":"function"},{"inputs":[{"internalType":"address","name":"_severAddress","type":"address"},{"internalType":"contract ERC20Upgradeable","name":"_rewardToken","type":"address"}],"name":"initialize","outputs":[],"stateMutability":"nonpayable","type":"function"},{"inputs":[{"internalType":"address","name":"","type":"address"}],"name":"isLeader","outputs":[{"internalType":"bool","name":"","type":"bool"}],"stateMutability":"view","type":"function"},{"inputs":[],"name":"numLeader","outputs":[{"internalType":"uint256","name":"","type":"uint256"}],"stateMutability":"view","type":"function"},{"inputs":[],"name":"owner","outputs":[{"internalType":"address","name":"","type":"address"}],"stateMutability":"view","type":"function"},{"inputs":[],"name":"pause","outputs":[],"stateMutability":"nonpayable","type":"function"},{"inputs":[],"name":"paused","outputs":[{"internalType":"bool","name":"","type":"bool"}],"stateMutability":"view","type":"function"},{"inputs":[],"name":"renounceOwnership","outputs":[],"stateMutability":"nonpayable","type":"function"},{"inputs":[],"name":"rewardToken","outputs":[{"internalType":"contract ERC20Upgradeable","name":"","type":"address"}],"stateMutability":"view","type":"function"},{"inputs":[{"internalType":"address","name":"_leader","type":"address"},{"internalType":"bool","name":"_state","type":"bool"}],"name":"setLeader","outputs":[],"stateMutability":"nonpayable","type":"function"},{"inputs":[],"name":"severAddress","outputs":[{"internalType":"address","name":"","type":"address"}],"stateMutability":"view","type":"function"},{"inputs":[{"internalType":"address","name":"newOwner","type":"address"}],"name":"transferOwnership","outputs":[],"stateMutability":"nonpayable","type":"function"},{"inputs":[],"name":"unpause","outputs":[],"stateMutability":"nonpayable","type":"function"},{"inputs":[{"internalType":"uint256","name":"","type":"uint256"}],"name":"voteInfos","outputs":[{"internalType":"bool","name":"executed","type":"bool"},{"internalType":"bool","name":"devVote","type":"bool"},{"internalType":"address","name":"newLeader","type":"address"},{"internalType":"uint80","name":"numLeaderVote","type":"uint80"},{"internalType":"uint256","name":"devClaimAmount","type":"uint256"}],"stateMutability":"view","type":"function"}]}